:100000000C9446000C9465000C9465000C946500FB
:100010000C9465000C9465000C9465000C946500CC
:100020000C9465000C9465000C9465000C946500BC
:100030000C9465000C9465000C9465000C946500AC
:100040000C9465000C9465000C9465000C9465009C
:100050000C9465000C9465000C9465000C9465008C
:100060000C9465000C9465000C9465000C9465007C
:100070000C9465000C9465000C9465000C9465006C
:100080000C9465000C9465000C94650011241FBE4F
:10009000CFEFD0E1DEBFCDBF12E0A0E0B1E0E4E7FA
:1000A000F1E100E00BBF02C007900D92A633B1074B
:1000B000D9F722E0A6E3B2E001C01D92A733B20750
:1000C000E1F70E9479050C94B8080C94000087B3FE
:1000D000806F87BB14BA81B3806A81BB82B18F63A2
:1000E00082B980E180936400089580E287B98EE050
:1000F00086B9089588B3816088BB82B3806482BB6F
:1001000082B3806182BB88B3826088BB87B38F6013
:1001100087BB81B3806581BB8CEF8DB98EB18EB901
:10012000089585991BC08091630082FD35C0809140
:1001300036028160809336028091630081FD32C077
:10014000809136028260809336028091630080FD48
:100150002FC08091360284608093360284993FC01C
:100160008091630082FD2AC080913602886080936E
:1001700036028091630081FD27C080913602806144
:10018000809336028091630080FD24C08091360206
:100190008062809336020895809136028E7F80932C
:1001A0003602CACF809136028D7F80933602CDCF42
:1001B000809136028B7F80933602D0CF80913602B9
:1001C000877F80933602D5CF809136028F7E8093D1
:1001D0003602D8CF809136028F7D80933602089503
:1001E0000E9B2FC081E090E00F992EC0C89B2EC0BF
:1001F0008460C99B2DC08860CA9B2CC08061CB9B4A
:100200002BC08062CC9B2AC08064CD9B29C08068B3
:10021000CE9B28C09160CF9927C09D7F029B26C0AE
:100220009460039B25C09860049B24C09061059B4B
:1002300023C09062069B22C09064079921C09F77DB
:10024000089580E090E0D0CF8260D0CF8B7FD1CF77
:10025000877FD2CF8F7ED3CF8F7DD4CF8F7BD5CFEB
:100260008F77D6CF9E7FD7CF9260D8CF9B7FD9CFC5
:10027000977FDACF9F7EDBCF9F7DDCCF9F7BDDCF6B
:1002800090680895282F392F20FF31C083B18160F5
:1002900083B921FF30C083B1826083B922FF2FC0B0
:1002A00083B1846083B923FF2EC083B1886083B992
:1002B00024FF2DC083B1806183B925FF2CC083B199
:1002C000806283B926FF2BC088B3806188BB27FF7B
:1002D0002AC088B3806288BB30FF29C088B380649D
:1002E00088BB31FF28C088B3806888BB089583B17C
:1002F0008E7F83B9CECF83B18D7F83B9CFCF83B1CA
:100300008B7F83B9D0CF83B1877F83B9D1CF83B1BE
:100310008F7E83B9D2CF83B18F7D83B9D3CF88B39A
:100320008F7E88BBD4CF88B38F7D88BBD5CF88B371
:100330008F7B88BBD6CF88B38F7788BB08958FB962
:10034000779BFECF0895E5E6F0E080818F7E808385
:1003500023EE8FE191E0215080409040E1F700C012
:1003600000008081806180830895CF93DF93D62F32
:10037000C42F92B39F7E92BB92E09A95F1F700C092
:100380000E949F018FE08A95F1F78D2F0E949F01B7
:100390009FE09A95F1F78C2F0E949F010E94910097
:1003A00082EE8A95F1F7000082B3806182BB97E00C
:1003B0009A95F1F700C0DF91CF91089543E064E092
:1003C0008FE10E94B501089543E060E08FE10E9453
:1003D000B501089540E061E08FE10E94B50184E637
:1003E0009EE00197F1F700C000000895CF93C0E0B0
:1003F0000DC00E94DE0144E06C2F8FE10E94B50128
:1004000040E060E08FE50E94B501CF5FC03188F326
:10041000CF910895CF93DF93611521F0653018F0E7
:1004200064E001C061E0823108F081E1CFEFC60FE6
:10043000C295CC0FC07EC82BDC2FD0680E94E4018F
:100440004D2F42954F706C2F6F708FE10E94B50158
:10045000DF91CF91089582B3806282BBE5E6F0E040
:1004600080818061808327EC8FE392E0215080407F
:100470009040E1F700C000000E94DE0140E069E02A
:100480008FE10E94B5010E94E40140E06CE08FE141
:100490000E94B5010E94EA010E94F60108950F939F
:1004A0001F93CF93082F192F0E94E401C0E00AC0C8
:1004B000462F45954595459545956F708FE50E946A
:1004C000B501CF5FF801EC0FF11D60816111F0CF34
:1004D000CF911F910F910895EF92FF920F931F9369
:1004E000CF93DF9300D00F92CDB7DEB761E084E009
:1004F0000E940A0280E091E00E944F0263E081E0E6
:100500000E940A0289E091E00E944F0264E081E0CB
:100510000E940A0288E191E00E944F022FE387EFD8
:1005200099E5215080409040E1F700C000000E9412
:10053000EA01F12C21C04F2D440F440F400F612FD1
:100540008FE50E94B5011F5F1031A8F30E2D043016
:1005500048F4EE24E394E00E6E2D80E00E940A023F
:1005600010E0F2CF2FE689E793E4215080409040DD
:10057000E1F700C00000F39424E0F21620F40E949A
:10058000EA0100E0E4CF0E94EA0162E080E00E941C
:100590000A0288E291E00E944F0263E080E00E943C
:1005A0000A0287E391E00E944F0200E033C063E05B
:1005B0008FE00E940A021F921F9384E491E09F93B0
:1005C0008F93CE0101967C019F938F930E94D60555
:1005D000C7010E944F020E94DE0144E0602F8FE1BC
:1005E0000E94B50140E0612F8FE50E94B50193E7BD
:1005F0002FE985E0915020408040E1F700C00000E5
:100600001F5F0F900F900F900F900F900F90103171
:1006100070F20F5F003168F581E090E0002E02C0BB
:10062000880F991F0A94E2F787709F70892B89F3CE
:1006300080E390E39A8389831B8262E08FE00E94CB
:100640000A021F920F9384E491E09F938F93CE014F
:1006500001967C019F938F930E94D605C7010E944B
:100660004F020F900F900F900F900F900F9010E08F
:10067000CECF9FE629E783E4915020408040E1F708
:1006800000C000000E94F6010F900F900F90DF91C4
:10069000CF911F910F91FF90EF9008950F931F93AB
:1006A000CF93DF93CDB7DEB72F970FB6F894DEBFA9
:1006B0000FBECDBF61E081E00E940A0288E491E0B4
:1006C0000E944F0263E080E00E940A0288E591E008
:1006D0000E944F0264E080E00E940A028BE691E0F3
:1006E0000E944F022FE387EF99E521508040904010
:1006F000E1F700C000000E94EA0161E081E00E9491
:100700000A028EE791E00E944F0262E081E00E94BF
:100710000A028FE891E00E944F0263E081E00E94AC
:100720000A020EEE12E046C0843089F1853041F4B1
:1007300090E89D879AE99E8703C09B81905B9B838D
:100740008F5F863038F52091360230E0082E02C0E7
:10075000359527950A94E2F720FFF2CF8330A1F078
:1007600018F7813051F3823031F08111E9CF99814E
:10077000905B9983E5CF9D81905B9D8390EB9E83F9
:100780009F81905B9F83DCCF9CE99987D9CF9DE9BE
:100790009B87D6CF64E082E00E940A02CE010196D8
:1007A0000E944F0288EF97E40197F1F700C0000024
:1007B0000150110901151105B9F082B38F7D82BB7B
:1007C00027E02A95F1F700C00E94910082B3806271
:1007D00082BB8FE0ECE9F1E0DE01119601900D9211
:1007E0008A95E1F780E0ADCF2F960FB6F894DEBF83
:1007F0000FBECDBFDF91CF911F910F91089584B7A8
:10080000806884BF84B7806884BF0895EF92FF92A8
:100810000F931F93CF93DF93CDB7DEB76C970FB6CF
:10082000F894DEBF0FBECDBF0E94FF0361E084E0FD
:100830000E940A028BEA91E00E944F0263E080E08E
:100840000E940A0288E591E00E944F0264E080E085
:100850000E940A0283EB91E00E944F022FE387EF90
:1008600099E5215080409040E1F700C000000E94CF
:10087000EA0161E081E00E940A0286EC91E00E94B8
:100880004F0263E081E00E940A0284ED91E00E9441
:100890004F02E12C01E010E06EC02F5F3F4F20318E
:1008A0003105B0F481E090E0022E02C0880F991F5C
:1008B0000A94E2F784239523892B79F3E1E0F0E0B1
:1008C000EC0FFD1FE20FF31F8081805B8083E5CF7B
:1008D00020E030E002C02F5F3F4F2A303105B0F4F6
:1008E00081E090E0022E02C0880F991F0A94E2F77F
:1008F00080239123892B79F3E2E1F0E0EC0FFD1FD7
:10090000E20FF31F8081805B8083E5CF62E081E0AE
:100910000E940A02CE0101960E944F0264E081E02B
:100920000E940A02CE0142960E944F0288EF97E48D
:100930000197F1F700C00000FA94F114C9F081E1C9
:10094000E2EEF1E0DE01119601900D928A95E1F759
:100950008BE0E3EFF1E0DE01529601900D928A9573
:10096000E1F70E94F000482F592F20E030E097CFA8
:10097000000F111FE3949AE0E91640F4C8010E94A9
:1009800042010F2EF4E6FF2EF02DD7CF6C960FB656
:10099000F894DEBF0FBECDBFDF91CF911F910F91B5
:1009A000FF90EF900895EF92FF920F931F93CF93D4
:1009B000DF9300D000D00F92CDB7DEB761E084E0C6
:1009C0000E940A028EEF91E00E944F0263E080E0F5
:1009D0000E940A0288E591E00E944F0264E080E0F4
:1009E0000E940A028BE691E00E944F022FE387EFFC
:1009F00099E5215080409040E1F700C000000E943E
:100A0000EA0162E082E00E940A0287E092E00E942E
:100A10004F0286B1806886B987B18E7F87B900E0C2
:100A200010E053C080E390E39A8389838EE290E3E1
:100A30009C838B831D8286B1806486B9349BFECFF4
:100A400085B190E09C01220F331F280F391F220F20
:100A5000331F220F331F225C3F4FADECBCEC0E94D2
:100A6000C7059695879596958795969587959F93B3
:100A70008F9386E192E09F938F93CE0101967C0144
:100A80009F938F930E94D6058B818C838EE28B83FC
:100A900063E085E00E940A02C7010E944F0263E002
:100AA0008AE00E940A028AE192E00E944F0281EFEE
:100AB0009FE80197F1F700C000000F5F1F4F0F90F4
:100AC0000F900F900F900F900F90043F91E0190737
:100AD00008F4A8CF86B18F7786B90F900F900F904A
:100AE0000F900F90DF91CF911F910F91FF90EF909A
:100AF00008950E9467000E9475000E947A002FEC02
:100B00008DE796E1215080409040E1F700C0000061
:100B10000E942B0282B3806882BB62E083E00E9465
:100B20000A028EE192E00E944F022FE98BEF9CE2D5
:100B3000215080409040E1F700C000000E94EA018F
:100B40000E946C020E94EA010E944E030E94EA0188
:100B50000E9406040E94EA010E94D3040E94EA0156
:100B600062E083E00E940A0289E292E00E944F0262
:100B70002FE98BEF9CE2215080409040E1F700C0CC
:100B800000000E94EA0182B38F7782BBC1CFA29F8F
:100B9000B001B39FC001A39F700D811D1124911D51
:100BA000B29F700D811D1124911D08950F931F9305
:100BB000CF93DF93CDB7DEB72E970FB6F894DEBF95
:100BC0000FBECDBF0D891E8986E08C831A830983F1
:100BD0008FEF9FE79E838D83AE01475E5F4F6F89E6
:100BE000788DCE0101960E9406062F813885020F6E
:100BF000131FF80110822E960FB6F894DEBF0FBEB9
:100C0000CDBFDF91CF911F910F9108955F926F92A9
:100C10007F928F929F92AF92BF92CF92DF92EF928C
:100C2000FF920F931F93CF93DF93CDB7DEB72B9730
:100C30000FB6F894DEBF0FBECDBF6C017B018A01F9
:100C4000FC0117821682838181FFEBC19AE0592E45
:100C5000F6012381F70123FD859123FF81917F0117
:100C6000811509F41FC1853239F423FD959123FFC5
:100C700091917F01953229F4B60190E00E942A08F3
:100C8000E7CF30E0912C612C712CF0E27F1640F51B
:100C90009B32D9F058F49032D1F09332F1F09E3279
:100CA00099F576FCFFC0689476F806C09D3291F005
:100CB0009033C1F4689470F8F70123FD959123FFF8
:100CC00091917F019111E1CF29C0689471F86894E6
:100CD00072F8F2CF689473F8EFCF689474F8ECCFA1
:100CE00077FC1CC080ED890F8A30C8F676FE05C0FF
:100CF000959C800D1124982EDFCF659C800D1124CA
:100D0000682E689475F8D8CF9C3619F4689477F8F3
:100D1000D3CF9C3409F44BC0983671F2892F8F7D64
:100D20008554833008F445C0933609F466C0933780
:100D300009F469C0933509F475C0943619F09936F1
:100D400009F09FC0F80177FE95C061917191819182
:100D500091918F01272D2F76822E97FF09C09095B4
:100D60008095709561957F4F8F4F9F4F689487F85E
:100D70002AE030E0AE014F5F5F4F5A010E945A08EF
:100D80008A19A82E86FED6C0882D8E7FA91408F059
:100D9000D0C084FE23C182FC17C1F82DFE7E8F2EA9
:100DA000B92C882D8678811509F4D1C012C131E0A3
:100DB00083CF3115F9F0085F1F4F8FE389838824B3
:100DC0008394912CAE014F5F5F4F5A01E89477F8FE
:100DD00073FC03C086149104B0F181149104D1F521
:100DE000611409F435CFB60180E290E00E942A0830
:100DF0006A94F6CF0C5F1F4FE0CFF80180818983A2
:100E00000E5F1F4FDCCFF801A190B1908F01692DCB
:100E100070E076FC02C06FEF7FEFC5010E941F08F3
:100E20004C01D4CFF801A190B1908F01692D70E0F1
:100E300076FC02C06FEF7FEFC5010E9414084C01E1
:100E4000689477F8C5CFB60180E290E00E942A0846
:100E50006A94C0CFF50177FC859177FE81915F019F
:100E6000B60190E00E942A0861106A94F1E08F1A9E
:100E70009108B3CF61917191072E000C880B990BEB
:100E800068CF872CE89484F82AE030E09537C9F1E0
:100E9000572D597F852E903729F1E8F4983539F18F
:100EA0009F3669F1F601868197812B960FB6F894EB
:100EB000DEBF0FBECDBFDF91CF911F910F91FF908D
:100EC000EF90DF90CF90BF90AF909F908F907F90EA
:100ED0006F905F900895983729F774FC05C020E162
:100EE00030E00FC0689484F8689482F8F8CF74FEFC
:100EF00003C0872D8660882E20E132E002C028E002
:100F000030E0F80187FE10C061917191819191915B
:100F10008F01FE0131965F01AF010E945A088A19C4
:100F2000A82EE89487F82ECF6191719180E090E02F
:100F3000EFCF882EBA2C84FE34CFFE01EA0DF11DCE
:100F40008081803309F043C0282D297E822E83FCC6
:100F50000EC080FE4FC09A2CB61418F4960C9B1845
:100F6000B62C862D8B196B1408F480E0B80EB614DD
:100F700008F042C06B1884FE41C0B60180E390E0E7
:100F80000E942A0882FE09C088E590E081FC02C028
:100F900088E790E0B6010E942A08A914D8F1AA9423
:100FA000B12C4FEFA41AB40ACE0101964C01A80E41
:100FB000B91EF50182915F01B60190E00E942A08F6
:100FC0008A149B04B1F70CCFB92C882EB6CF82FCC3
:100FD00002C0B394BCCFB394B394B9CFB92C882ECC
:100FE000E0CEB60180E290E00E942A087394761465
:100FF000C0F3B7CF7B2CFBCF612CBDCF882D86787B
:10100000811559F280E281FC8BE287FC8DE2B6010A
:1010100090E0C1CFB60180E390E00E942A089A9444
:10102000BCCF8FEF9FEF41CFFC0105906150704026
:101030000110D8F7809590958E0F9F1F0895FC01A1
:101040006150704001900110D8F7809590958E0FF7
:101050009F1F08950F931F93CF93DF93182F092F8E
:10106000EB018B8181FD09C01FEF0FEF812F902FC6
:10107000DF91CF911F910F91089582FF14C02E81AF
:101080003F818C819D81281739073CF4E881F981E3
:10109000CF0101969983888310838E819F81019669
:1010A0009F838E83E3CFE885F985812F0995892B6E
:1010B000A1F3DACFFA01AA27283051F1203181F1CA
:1010C000E8946F936E7F6E5F7F4F8F4F9F4FAF4F50
:1010D000B1E03ED0B4E03CD0670F781F891F9A1F63
:1010E000A11D680F791F8A1F911DA11D6A0F711D17
:1010F000811D911DA11D20D009F468943F912AE023
:10110000269F11243019305D3193DEF6CF0108950A
:10111000462F4770405D4193B3E00FD0C9F7F6CF3B
:10112000462F4F70405D4A3318F0495D31FD405203
:10113000419302D0A9F7EACFB4E0A6959795879599
:1011400077956795BA95C9F7009761057105089578
:101150009B01AC010A2E0694579547953795279524
:10116000BA95C9F7620F731F841F951FA01D0895BC
:04117000F894FFCF21
:101174004C43442044454D4F005072696E742063C3
:101184006F6D706C6574650063686172202B2073E9
:101194006567206D61702E005365672E20706F7334
:1011A4006974696F6E3A005365672E2073796D62B6
:1011B4006F6C3A00253275005055534842555454CB
:1011C4004F4E2044454D4F0044656D6F2069732098
:1011D40061637469766520666F7200617070726F06
:1011E40078203130207365636F6E64732E00507203
:1011F40065737320627574746F6E73206F6E00660E
:10120400726F6E742070616E656C2E0041204220F6
:10121400455343204D2050204F4B00494F20444517
:101224004D4F00617070726F7820313520736563A3
:101234006F6E64732E00494E5055542053544154DC
:1012440055533A004F555450555420535441545516
:10125400530031323334353637383941424344450B
:10126400464700313233343536373839410041444A
:10127400432044454D4F00494E50555420564F4C41
:10128400544147453A002533750056444300576599
:101294006C636F6D65203A2900456E64206F66208B
:0612A40064656D6F2E0071
:00000001FF
